:020000040800F2
:10000000B8040020AD010008F3120008F711000841
:10001000F1120008B9020008631500080000000092
:10002000000000000000000000000000F7120008BF
:10003000BB02000800000000F5120008F9120008D9
:10004000C7010008C7010008C7010008C701000870
:10005000C7010008C7010008C7010008C701000860
:10006000C7010008C7010008C7010008C701000850
:10007000C7010008C7010008C7010008C701000840
:10008000C7010008C7010008C70100080000000000
:10009000000000000000000000000000C701000890
:1000A000C7010008C7010008C7010008C701000810
:1000B00099130008C7010008C7010008C70100081C
:1000C000C7010008C7010008C7010008C7010008F0
:1000D000C7010008C7010008C701000800000000B0
:1000E000C7010008C7010008C701000800000000A0
:1000F000000000000000000000000000C701000830
:1001000000000000C7010008C7010008C70100087F
:1001100000000000000000000000000000000000DF
:10012000C7010008C7010008C7010008C70100088F
:10013000C7010008000000000000000000000000EF
:10014000000000000000000000000000C7010008DF
:10015000C7010008C7010008C7010008C70100085F
:10016000C7010008C70100080000000000000000EF
:10017000000000000000000000000000000000007F
:1001800000000000C701000800000000000000009F
:10019000C7010008C7010008DFF80CD000F07AF8AA
:1001A00000480047A5150008B8040020064880470D
:1001B00006480047FEE7FEE7FEE7FEE7FEE7FEE74C
:1001C000FEE7FEE7FEE7FEE77D1300089901000861
:1001D0002DE9F05F0546002092469B46884606467C
:1001E000814640241BE0284641464746224600F00F
:1001F00041F853465A46C01A914110D31146184649
:10020000224600F028F82D1A67EB01084F462246D7
:100210000120002100F01FF817EB00094E41201EBD
:10022000A4F10104DFDC484631462A464346BDE8D6
:10023000F09FD2B201E000F8012B491EFBD27047BB
:100240000022F6E710B513460A4604461946FFF7A2
:10025000F0FF204610BD202A04DB203A00FA02F10C
:10026000002070479140C2F1200320FA03F31943A4
:1002700090407047202A04DB203A21FA02F0002146
:10028000704721FA02F3D040C2F1200291400843A6
:1002900019467047064C074D06E0E06840F0010340
:1002A00094E8070098471034AC42F6D3FFF778FF84
:1002B0001816000838160008FEE770472DE9F84FB9
:1002C00000224FF0010803254FF00F0E0B6808FACB
:1002D00002F42340A34271D14E68012E05D0022EB4
:1002E00003D0112E01D0122E15D18668570005FAC1
:1002F00007FC26EA0C06D1F80CC00CFA07FC4CEA05
:10030000060CC0F808C04668A6430C79C4F3001474
:10031000944034434460C668570005FA07FC8C6873
:1003200026EA0C06BC403443C4604C68022C01D061
:10033000122C13D1D40800EB8404A346D4F82090E7
:1003400054074FEAD46A0EFA0AF629EA06090E693A
:1003500006FA0AF646EA0906CBF8206004680E7928
:1003600024EA0C0406F00306BE40264306604C68EF
:10037000E40056D52E4C266846F480462660246854
:1003800022F0030604F4804400942A4C3444A4462A
:10039000D4F808489607370F0EFA07F6B443264EEE
:1003A000B04201D1002615E0244EB04201D1012611
:1003B00010E0234EB04202D102260BE031E0214E84
:1003C000B04201D1032605E01F4EB04201D1042600
:1003D00000E00726BE402643CCF808681B4E346870
:1003E0004F689C43FF0300D51C433460174E361DF5
:1003F00034684F689C43BF0300D51C433460134EE0
:10040000083634684F689C43FF0200D51C433460B3
:100410000E4E0C3634684F689C43BF0200D51C4317
:100420003460521C102AFFF451AFBDE8F88F000071
:100430004438024000300140000002400004024005
:1004400000080240000C024000100240003C014045
:100450000AB1816170470904FBE700000148806828
:10046000704700001000002070B5040025D094F8FB
:100470003D00002520B984F83C50204600F0B8F833
:10048000242084F83D002068016821F0010101600A
:100490002068016841F4004101602068016821F48E
:1004A0000041016000F00CFA4D4A6168914201D8A8
:1004B0004C4900E04C49884201D2012070BD4B49B3
:1004C0002368B0FBF1F15E6826F03F060E435E60E4
:1004D0006368934206D94FF4967359434FF47A7385
:1004E000B1FBF3F12368491C1E6A26F03F06314335
:1004F00019626168914210D84900401EB0FBF1F2C8
:10050000521CC2F30B02042A01D2042022E0B0FBE9
:10051000F1F0401CC0F30B001CE0A268F2B301EB49
:10052000C10303EB0116431EB3FBF6F35B1C43F45C
:1005300080431B0549D092B301EBC10202EB0111CC
:10054000401EB0FBF1F0401CC0F30B0040F48040B3
:1005500040F400402168CA694CF6FF739A43104387
:10056000C861D4E9071001432068026822F0C00284
:1005700011430160D4E9030101432068826848F215
:10058000FF339A4311438160D4E905010843216890
:10059000CA6822F0FF021043C86001E00EE016E0D6
:1005A0002068016841F0010101602564202084F881
:1005B0003D00256384F83E50002070BD01EB4106EC
:1005C000431EB3FBF6F35B1CB3E70120C2E701EB6C
:1005D0004101401EB0FBF1F0401CC0F30B00B7E737
:1005E000A086010080841E0000093D0040420F00EB
:1005F00010B586B0044614216846FFF721FE134962
:100600002068884220D11248016841F0020101604F
:100610000068694600F002000590C020009012209A
:1006200001900120029003200390042004900948C7
:10063000FFF744FE06481030016841F400110160E4
:10064000006800F40010059006B010BD0054004092
:1006500030380240000402400248816802781144A8
:1006600081607047100000200B4810B5016841F40C
:1006700000710160016841F480610160016841F42A
:1006800080710160032000F06FF8002000F006F890
:1006900000F024F8002010BD003C024070B50D4D64
:1006A00004464FF47A712878B1FBF0F00A490968E2
:1006B000B1FBF0F000F0F4FA48B9102C07D2002298
:1006C0002146501E00F030F800206C6070BD012003
:1006D00070BD0000100000201C0000200A4808B572
:1006E000016841F480410160006800F4804000909E
:1006F0000548001F016841F080510160006800F06A
:100700008050009008BD000044380240002809DBFA
:1007100000F01F02012191404009800000F1E0201B
:10072000C0F8001170470000F0B40E4B1B680C4677
:10073000C3F30223C3F10705042D00D90425191DB5
:10074000072901D2002300E0DB1E012606FA05F18D
:10075000491E214099409E40761E16403143F0BC10
:1007600000F000BF0CED00E0064900F00702086849
:100770004FF6FF03184040EA0220034A1043086086
:10078000704700000CED00E00000FA052DE9F0478D
:100790000E46050065D0DFF81481D8F80000F7B2E6
:1007A00000F00F00B04207D288F80070D8F80000BF
:1007B00000F00F00B04254D128683D4C810712D59B
:1007C000400703D5206840F4E050206028780007F7
:1007D00003D5206840F4604020602068A96820F0BC
:1007E000F000084320602878C0072DD030496868A1
:1007F0000839012812D0022813D0032811D0096823
:10080000890700292DDA216821F0030101432160C5
:10081000FFF724FE814641F2883A0EE00968890319
:10082000EFE709688901ECE7FFF718FEA0EB090183
:10083000514502D90320BDE8F0872068696800F0BF
:100840000C00B0EB810FEFD1D8F80010404601F05A
:100850000F01B14207D90770006800F00F00B042E5
:1008600001D00120E7E72878400705D52068E9682E
:1008700020F4E050084320602878000706D520685F
:10088000296920F4604040EAC100206000F028F8A7
:100890002168084AC1F30311515CC8400649086049
:1008A00006480068FFF7FAFE0020C4E7003C02405B
:1008B00008380240001600081C0000201400002028
:1008C0000448054900680968044AC1F38221515C63
:1008D000C84070471C00002008380240101600086D
:1008E000154810B5006810F00C02144813D01449D4
:1008F000042A0FD0082A0ED10F4C241F2268236827
:1009000002F03F025B0207D52068C0F38810A0FB0D
:10091000010106E0084610BD2168C1F38811A1FB62
:1009200000010023FFF754FC2168C1F30141491C79
:100930004900B0FBF1F010BD083802400024F4007B
:10094000002D31012DE9F84F040076D02078DFF832
:1009500038A3CE4DC00749D0DAF800105046C1F395
:100960008101012908D00068C0F3810002280AD162
:10097000281D0068400206D52868800336D56068C7
:100980000028E2D032E06068B0F5803F10D0B0F5CA
:10099000A02F286810D020F480302860286820F428
:1009A000802028606068A0B1FFF758FD06460CE083
:1009B000286840F48030F4E740F480202860F7E7AE
:1009C000FFF74CFD801B642873D828688003F7D597
:1009D0000CE0FFF743FD064605E000BFFFF73EFDD4
:1009E000801B6428F0D828688003F7D42078DFF8CB
:1009F000A08280074FF000093ED5DAF8001050467B
:100A000011F00C0F09D00068C0F3810002280BD14F
:100A10009D48001F0068400206D42868800715D54D
:100A2000E068012809D111E0E068B8B10120C8F8F8
:100A30000000FFF713FD064605E020E1FFF70EFD7D
:100A4000801B0228C0D828688007F7D5286821694C
:100A500020F0F80040EAC10028600DE0C8F80090DE
:100A6000FFF7FCFC064604E0FFF7F8FC801B0228B9
:100A70001FD828688007F7D42078000722D5824E37
:100A8000844861696C3671B101210160FFF7E6FCB1
:100A9000074604E0FFF7E2FCC01B022809D83068D3
:100AA0008007F7D50EE0C0F80090FFF7D7FC0746A7
:100AB00005E082E0FFF7D2FCC01B02287DD8306839
:100AC0008007F7D42078400768D5DFF8BCB100274D
:100AD0000BF1380BDBF80000C0000BD4DBF8001082
:100AE00041F08051CBF80010DBF80000012700F046
:100AF00080500090684E3068C00510D4306840F4D3
:100B000080703060FFF7AAFC009005E0FFF7A6FCBC
:100B10000099401A022850D83068C005F6D55A4EC0
:100B2000A068683601280FD00528306810D020F062
:100B300001003060306820F004003060A068B8B177
:100B4000FFF78CFC00900FE0306840F00100F4E704
:100B500040F004003060F7E7FFF780FC0099411A8D
:100B600041F28830814266D830688007F4D50EE0C3
:100B7000FFF774FC009007E0FFF770FC0099411A42
:100B800041F28830814256D830688007F4D42FB1C2
:100B9000DBF8001021F08051CBF80010A069D0B331
:100BA000DAF800205146C2F38102022A4AD0022814
:100BB000484607D0C8F8600000E03CE0FFF74EFC74
:100BC00004463BE04746C8F86000FFF747FC06468E
:100BD00005E000BFFFF742FC801B02282BD82868E5
:100BE0008001F7D4D4E907010843A16A2B4A4908D8
:100BF00002EB0141626A41EA8211084394F82C1029
:100C000040EA01612048001F016001203866FFF7BB
:100C100025FC044605E034E0FFF720FC001B022819
:100C200009D828688001F7D52BE000BFFFF716FC34
:100C3000001B022802D90320BDE8F88F2868800134
:100C4000F4D41EE00128F7D00868E26900F48001BE
:100C5000914214D1226A00F03F0191420FD147F630
:100C6000C071626A0140914209D1A26A00F4403128
:100C7000914204D1E16A00F07060884201D0012005
:100C8000DAE70020D8E700000838024000380240C8
:100C900000004742800E4742007000400000FFFF06
:100CA00010B5401EB0F1807F01D3012010BD4FF080
:100CB000E02460610F21601700F054FC0020A06167
:100CC00007202061002010BD7047704770B590F874
:100CD0003C20012A2CD0012480F83C40022280F8DC
:100CE0003D2003685A689D6822F070060A68324306
:100CF0005A60104B02689A420ED0B2F1804F0BD06E
:100D00000D4B9A4208D00D4B9A4205D00C4B9A429B
:100D100002D00C4B9A4204D1496825F08003194354
:100D2000916080F83D40002180F83C10084670BD7D
:100D3000022070BD00000140000400400008004097
:100D4000000C00400040014010B5040003D094F8AE
:100D50003D0010B107E0012010BD002084F83C00E8
:100D6000204600F00DF8022084F83D00211D206887
:100D700000F018FB012084F83D00002010BD0000A9
:100D800010B586B0044614216846FFF759FA20686A
:100D9000B0F1804F26D114480021026842F00102D0
:100DA0000260006800F0010005900F4810380268EA
:100DB00042F0010202600068022200F0010005908A
:100DC00001200090CDE90121CDE9031069460748D3
:100DD000FFF774FA002211461C20FFF7A5FC1C2027
:100DE000FFF794FC06B010BD4038024000000240FE
:100DF00070B5044690F83C00012817D0012584F80E
:100E00003C50022084F83D002068826822F077027E
:100E100022F47F4282600868502830D00DDC202800
:100E20004DD005DC98B310283BD148E0022070BDBE
:100E3000302844D0402834D139E0602828D07028A8
:100E400006D0B0F5805F2CD0B0F5005F29D10AE064
:100E5000CB68D1E90121206800F0FDFA20688168A3
:100E600041F0770109E0CB68D1E90121206800F069
:100E7000F2FA2068816841F48041816011E0CA681B
:100E80004968206800F0F9FA5021206807E016E070
:100E9000CA684968206800F037FB6021206800F0CC
:100EA000E4FA84F83D50002084F83C0070BDCA6824
:100EB0004968206800F0E1FA40212068EFE72268E5
:100EC00001461046EBE700000349884202D1096859
:100ED0000020486270470000740000202DE9F041B6
:100EE000044690F83C000D4601283DD0012684F8C8
:100EF0003C60022084F83D00AAB3042A46D0206852
:100F0000082A55D0D5E90027E968036A23F48053FD
:100F10000362D0F81CC0036A2CF4407C4CEA07271B
:100F20004FF6FF7C27F470470CEA013139434FF448
:100F3000204723F4204307EA02321A43C1610262C8
:100F40002068C16921F44061C1612068C169AA6853
:100F500041EA0221C0F81C1084F83D60002084F8AA
:100F60003C00BDE8F08101E00220FAE7D5E900127B
:100F7000EB68206800F092FA2068816921F00C018A
:100F8000816120688169AA6811430FE0D5E90012E8
:100F9000EB68206800F0CAFA2068816921F440619A
:100FA000816120688169AA6841EA02218161D3E7F1
:100FB000D5E9002C2F7B016A21F480710162C1699F
:100FC000036A21F0030141EA0C0121F0F00C39071A
:100FD0004FF420674CEA116123F4206307EA0222F0
:100FE0001A43C16102622068C16921F00C01C1612C
:100FF0002068C169AA681143ACE710B5040003D0AA
:1010000094F83D0010B107E0012010BD002084F8E5
:101010003C00204600F00CF8022084F83D00211D21
:10102000206800F0BFF9012084F83D00002010BDC9
:10103000704710B50268044631B1042908D0082968
:101040001AD00C2908D11BE0D06840F0020002E061
:10105000D06840F00400D0600122206800F0EEF972
:101060002068816801F00701062903D0016841F07A
:1010700001010160002010BDD06840F00800EAE7DF
:10108000D06840F01000E6E770B5044600680169DA
:101090004FF00005C943890715D4C168C9438907C2
:1010A00011D4E91E01610120207720688069800742
:1010B000204602D0FFF708FF04E000F098F8204631
:1010C00000F096F8257720680169C943490717D4CD
:1010D000C168C943490713D46FF0040101610220BC
:1010E00020772068806910F4407F204602D0FFF707
:1010F000EBFE04E000F07BF8204600F079F825775D
:1011000020680169C943090716D4C168C9430907A2
:1011100012D46FF008010161042020772068C069B3
:101120008007204602D0FFF7CFFE04E000F05FF812
:10113000204600F05DF8257720680169C943C9069B
:1011400017D4C168C943C90613D46FF010010161F7
:10115000082020772068C06910F4407F204602D024
:10116000FFF7B2FE04E000F042F8204600F040F83D
:10117000257720680169C943C90708D1C168C943F7
:10118000C90704D1891E0161204600F032F82068A9
:101190000169C943090609D4C168C943090605D4D0
:1011A0006FF0800101612046FFF78EFD2068016924
:1011B000C943490609D4C168C943490605D46FF03B
:1011C00040010161204600F015F820680169C9431B
:1011D00089060BD4C168C943890607D46FF0200182
:1011E00001612046BDE87040FFF76FBD70BD7047DC
:1011F000704770477047FEE770B586B014216846A7
:10120000FFF71EF81A480024016841F080010160D0
:10121000016801F080010591016841F00101016060
:10122000016801F001010591016841F008010160C8
:10123000016801F008010591016841F002010160B7
:1012400000680C4E00F002004FF4004505900022AB
:1012500029463046FFF7FCF801200095CDE901044E
:10126000694630460394FFF729F806B070BD0000C8
:1012700030380240000C024010B58AB000241B48F0
:101280000494059406940794089409940094019496
:1012900002944FF080410394016042F21071C0E962
:1012A00001144FF6FF71C0E903148461FFF74CFD90
:1012B0004FF48050049004A90C48FFF799FD0B48A7
:1012C000FFF79BFE089408A908480994FFF7FEFC65
:1012D0000120CDE900400F20CDE9024000226946FF
:1012E0000248FFF7FBFD0AB010BD000074000020AB
:1012F000FEE7704770477047FFF7AEB930B593B05F
:1013000030216846FEF79CFF14210CA8FEF798FFD9
:1013100018480025016841F080510160006800F024
:10132000805011901448016841F440410160006808
:10133000022400F44040119001200090000401902C
:101340008001CDE9064014200890C820CDE90904A9
:1013500004200B906846FFF7F5FA0CA90F2081E8EE
:101360003100E002CDE90F0503210CA8FFF70EFACA
:1013700013B030BD4038024000700040054801689D
:1013800041F47001016003494FF00060803908604A
:101390007047000088ED00E00148FFF775BE0000CF
:1013A00074000020F0B502681D4B1E4C9F031E4DBB
:1013B0001E4E984207D0B84205D0A04203D0A842A2
:1013C00001D0B04204D122F0700C4A6842EA0C020B
:1013D000984210D0B8420ED0A0420CD0A8420AD0F9
:1013E000B04208D0124CA04205D0124CA04202D00C
:1013F000114CA04203D122F44074CA6822434C69C4
:1014000022F08002224302608A68C2620A68826215
:10141000984201D10969016301214161F0BD0000D9
:10142000000001400004004000080040000C0040A3
:1014300000400140004401400048014010B501F067
:101440001F030121046A99408C430462016A9A4097
:101450001143016210BD10B5846842EA032224F4EE
:101460007F440A432243826010BD826822F07002EA
:101470000A4342F007018160704710B5036A046AAD
:1014800024F001040462846924F0F00444EA0214A4
:1014900023F00A020A438461026210BD70B5046A37
:1014A00024F0010404628469056A124EB0420ED031
:1014B000B0F1804F0BD0104EB04208D00F4EB0426A
:1014C00005D00F4EB04202D00E4EB04203D124F0F0
:1014D0000304144301E044F001041A0724F0F0046B
:1014E00044EA126225F00A0301F00A0119438261FD
:1014F000016270BD0000014000040040000800408F
:10150000000C00400040014010B5036A23F01003B6
:1015100003628369046A23F4704343EA023224F0CD
:10152000A00343EA01118261016210BD30B5046A73
:1015300024F0100404628469056A24F4407444EAC7
:10154000022222F470444FF6FF7202EA0332224371
:10155000A02425F0A00304EA01111943826101626D
:1015600030BDFEE70907090E002804DB00F1E0208A
:1015700080F80014704700F00F0000F1E02080F8C0
:10158000141D704702E008C8121F08C1002AFAD1D2
:1015900070477047002001E001C1121F002AFBD1F3
:1015A00070470000FFF760F8FFF7A8FEFFF724FE82
:1015B00010480F494FF4804201600F4941600021FB
:1015C0008160C0E9031241618161C1610162FEF77E
:1015D0004BFFFFF751FE074800215430FFF729FD6C
:1015E0000448064954300068426A4A60FCE700003B
:1015F0000054004020000020A086010000000020D0
:1016000000000000000000000102030406070809B2
:10161000000000000102030438160008000000204A
:101620002000000084150008581600082000002043
:10163000980400009415000800000000000000005D
:101640000000000000000000010000001000000089
:08165000000000000024F4007A
:040000050800019955
:00000001FF
