:020000040800F2
:10000000480400209D010008151500085913000838
:1000100011150008E50100085F1800080000000045
:10002000000000000000000000000000F5150008BE
:10003000E90100080000000051150008F71500084C
:10004000B7010008B7010008B7010008B7010008B0
:10005000B7010008B7010008B7010008B7010008A0
:10006000B7010008B7010008B7010008B701000890
:10007000B7010008B7010008B7010008B701000880
:10008000B7010008B7010008B7010008B701000870
:10009000B7010008B7010008B7010008B701000860
:1000A000B7010008B7010008B7010008B701000850
:1000B000FD160008B7010008B7010008B7010008E5
:1000C000B7010008B7010008B7010008B701000830
:1000D000B7010008B7010008B7010008B701000820
:1000E000B7010008B7010008B7010008B701000810
:1000F000B7010008B7010008B7010008B701000800
:10010000B7010008B7010008B7010008B7010008EF
:10011000B7010008B7010008B7010008B7010008DF
:10012000B7010008B7010008B7010008B7010008CF
:10013000B7010008B7010008B7010008B7010008BF
:10014000B7010008B7010008B7010008B7010008AF
:10015000B7010008B7010008B7010008B70100089F
:10016000B7010008B7010008B7010008B70100088F
:10017000B7010008B7010008B7010008000000003F
:10018000B7010008B7010008DFF80CD000F018F83C
:1001900000480047851800084804002006488047AA
:1001A00006480047FEE7FEE7FEE7FEE7FEE7FEE75C
:1001B000FEE7FEE7FEE7FEE7A91600088901000852
:1001C000064C074D06E0E06840F0010394E80700A4
:1001D00098471034AC42F6D3FFF7DAFFEC1800086A
:1001E0000C19000800BFFEE77047000078B5034611
:1001F000002200240020E5E0012696400D6805EA73
:100200000604002C7DD04D68022D02D04D68122DC1
:1002100013D1D60803F1200555F826005507EE0E38
:100220000F25B540A8435607F60E0D69B540284383
:10023000D60803F1200545F8260018685600032566
:10024000B540A8430D7905F003055600B540284395
:1002500018604D68012D08D04D68022D05D04D68FD
:10026000112D02D04D68122D13D198685600032528
:10027000B540A8435600CD68B540284398605868FB
:1002800001259540A8430D79C5F3001595402843F5
:1002900058600D7905F00305032D09D1D86A0125B1
:1002A0009540A8430D79C5F3C00595402843D86211
:1002B000D86856000325B540A84356008D68B54060
:1002C0002843D8604D6805F08055B5F1805F78D13E
:1002D00000BF3F4D2D6E45F001053D4E356635465C
:1002E0002D6E05F00105009500BF00BF4FEAB63541
:1002F000960855F8260095072E0F0F25B540A84300
:1003000000E05EE0B3F1904F01D100251EE0314DD9
:10031000AB4201D1012519E02F4DAB4201D102259D
:1003200014E02E4DAB4201D103250FE02C4DAB4222
:1003300001D104250AE02B4DAB4201D1052505E092
:10034000294DAB4201D1062500E007259607360F5F
:10035000B5402843254D960845F82600244D2868C9
:10036000A0434D6805F48035B5F5803F00D12043AA
:100370001F4D28602D1D2868A0434D6805F40035E9
:10038000B5F5003F00D12043194D2D1D28602D1DCE
:100390002868A0434D6805F48015B5F5801F00D18D
:1003A0002043134D083528602D1D2868A0434D6853
:1003B00005F40015B5F5001F00D120430C4D0C3598
:1003C0002860521C0D68D540002D7FF415AF78BD14
:1003D000001002400004004800080048000C0048DB
:1003E00000100048001400480018004808000140B0
:1003F0000004014042694A40426170470AB181618C
:1004000000E081627047000001480068704700000A
:100410000400002002480068401C01490860704741
:100420000400002010B5032000F0A6F8002000F022
:1004300005F800F017F8002010BD000070B5044664
:10044000074800684FF47A71B0FBF1F5284600F0D8
:1004500096FD00222146501E00F04CF8002070BD91
:100460000000002008B500BF2148006E40F00100E8
:100470001F4908660846006E00F00100009000BFAA
:1004800000BF00BF0846806D40F080508865084678
:10049000806D00F08050009000BF00BF032000F08E
:1004A0006BF8002211466FF00B0000F023F80022D9
:1004B00011466FF00A0000F01DF8002211466FF09F
:1004C000090000F017F800221146501F00F012F842
:1004D00000221146101F00F00DF800221146901E58
:1004E00000F008F800221146501E00F003F808BD85
:1004F000001002402DE9F05F80460D4616460027A9
:1005000001F00AF8074639462A46334601F007004B
:10051000C0F1070ABAF1040F02D94FF0040A01E052
:10052000C0F1070AD14600F1040ABAF1070F02D25E
:100530004FF0000A01E0A0F1030AD4464FF0010A8F
:100540000AFA09FAAAF1010A0AEA020A0AFA0CFAF4
:100550004FF0010B0BFA0CFBABF1010B0BEA030B99
:100560004AEA0B042146404600F0DEFF00F000B8E6
:1005700030BCBDE8C09F000000BF00F00702064B82
:1005800019684FF6FF031940044B0B4343EA02215D
:10059000014B196000BF70470CED00E00000FA0548
:1005A00002460021B2F5007F29D11D48006800F401
:1005B000C060B0F5007F31D01948006820F4C060F9
:1005C00040F40070164B186016480068164BB0FBDC
:1005D000F3F0322300FB03F100E0491E31B1104873
:1005E000406900F48060B0F5806FF6D00C48406937
:1005F00000F48060B0F5806F10D103207047084888
:10060000006800F4C060B0F5806F07D0044800684F
:1006100020F4C06040F48060014B18600020EDE7DA
:10062000007000400000002040420F0002480068B7
:1006300000F4C060704700000070004070B50446D0
:100640000D4600267048006800F00700A8420ED250
:100650006D48006820F0070028436B490860084691
:10066000006800F00700A84201D0012070BD20788A
:1006700000F00100002879D06068032806D16348A3
:10068000006800F00070D8B90120EFE76068022828
:1006900006D15E48006800F4003088B90120E5E723
:1006A000606830B95948006800F0020040B9012084
:1006B000DCE75648006800F4806008B90120D5E7FF
:1006C0005248806820F00300616808434F49886001
:1006D000FFF79AFE06466068032810D108E0FFF78E
:1006E00093FE801B41F28831884201D90320BDE787
:1006F0004648806800F00C000C28F0D136E06068B5
:10070000022810D108E0FFF77FFE801B41F28831FC
:10071000884201D90320A9E73C48806800F00C001A
:100720000828F0D122E0606880B908E0FFF76CFE8D
:10073000801B41F28831884201D9032096E7334873
:10074000806800F00C000028F0D10FE008E0FFF70F
:100750005BFE801B41F28831884201D9032085E786
:100760002A48806800F00C000428F0D1207800F0BE
:100770000200022807D12548806820F0F000A16817
:100780000843224988602048006800F00700A8421A
:100790000ED91D48006820F0070028431A49086058
:1007A0000846006800F00700A84201D001205DE77C
:1007B000207800F00400042807D11448806820F451
:1007C000E060E168084311498860207800F0080083
:1007D000082808D10D48806820F46050216940EA5B
:1007E000C1000A49886000F01DF808498968C1F312
:1007F0000311074A515CC840064908600020FFF712
:100800001DFE002032E700000020024000100240E0
:10081000A41800080000002001480068704700008C
:1008200000000020F0B50021002300240225022250
:1008300000203B4EB66806F00C065EB1384EB66836
:1008400006F00C060C2E1ED1354EF66806F0030697
:10085000012E18D1324E366806F008062EB9304EF9
:1008600094363668C6F3032103E02D4E3668C6F38E
:1008700003112C4E56F82110294EB66806F00C06CE
:1008800086B908460EE0264EB66806F00C06042E21
:1008900001D1254806E0224EB66806F00C06082E67
:1008A00000D122481E4EB66806F00C060C2E36D13A
:1008B0001B4EF66806F00304194EF668C6F30216DE
:1008C000721C012C19D0022C02D0032C14D109E087
:1008D000154EB6FBF2F6124FFF68C7F3062706FB6C
:1008E00007F313E0114EB6FBF2F60D4FFF68C7F3A6
:1008F000062706FB07F309E000BFB1FBF2F6084F3D
:10090000FF68C7F3062706FB07F300BF00BF044ECE
:10091000F668C6F34166761C7500B3FBF5F0F0BDD2
:1009200000100240BC1800080024F40000127A00F5
:10093000F8B504460025207800F0100010286ED18C
:10094000F848806800F00C00002869D1F54800687C
:1009500000F0020018B1A06908B90120F8BDF14803
:10096000216A006800F0080020B1EE48006800F03D
:10097000F00005E0EB489430006800F47060000976
:1009800081421FD9206A00F0E5FD08B10120E5E7AA
:1009900000BFE448006840F00800E24908600846EB
:1009A000006820F0F000216A0843DE49086000BFBB
:1009B0000846406820F47F40E16940EA0120D949B7
:1009C00048601EE000BFD748006840F00800D549E5
:1009D00008600846006820F0F000216A0843D14909
:1009E000086000BF0846406820F47F40E16940EAA3
:1009F0000120CC494860206A00F0ACFD08B101201C
:100A0000ACE7FFF70FFFC7498968C1F30311C64A76
:100A1000515CC840C54908600020FFF70FFD4AE05F
:100A2000A06980B3BF48006840F00100BD4908607C
:100A3000FFF7EAFC054606E0FFF7E6FC401B02284C
:100A400001D903208AE7B748006800F002000028B7
:100A5000F2D000BFB348006840F00800B149086018
:100A60000846006820F0F000216A0843AD4908609C
:100A700000BF0846406820F47F40E16940EA012059
:100A8000A849486017E0FFE7A648006820F0010089
:100A9000A4490860FFF7B8FC054606E0FFF7B4FC80
:100AA000401B022801D9032058E79E48006800F047
:100AB00002000028F2D1207800F00100002868D060
:100AC0009848806800F00C0008280BD09548806892
:100AD00000F00C000C280ED19248C06800F0030012
:100AE000032808D18F48006800F4003088B360689C
:100AF00078BB012032E700BF6068B0F5803F06D1C7
:100B00008848006840F48030864908601AE06068D0
:100B1000B0F5A02F0BD18348006840F480208149B4
:100B200008600846006840F4803008600AE07D48AC
:100B3000006820F480307B4908600846006820F493
:100B40008020086000BF606890B1FFF75DFC05463B
:100B500007E01EE0FFF758FC401B642801D9032082
:100B6000FCE67048006800F400300028F2D010E085
:100B7000FFF74AFC054606E0FFF746FC401B6428E9
:100B800001D90320EAE66748006800F40030002835
:100B9000F2D1207800F0020002285ED1614880681E
:100BA00000F00C0004280BD05E48806800F00C00B8
:100BB0000C2818D15B48C06800F00300022812D14D
:100BC0005848006800F4806018B1E06808B9012056
:100BD000C4E65448406820F0F850217C40EA0160A7
:100BE0005049486039E0E06800B34E48006840F47E
:100BF00080704C490860FFF707FC054606E0FFF7E8
:100C000003FC401B022801D90320A7E645480068E1
:100C100000F480600028F2D04248406820F0F8508C
:100C2000217C40EA01603F49486016E03D48006889
:100C300020F480703B490860FFF7E6FB054606E0BC
:100C4000FFF7E2FB401B022801D9032086E6354866
:100C5000006800F480600028F2D1207800F00800DD
:100C6000082836D16069D0B12E489430006840F031
:100C700001002C49C1F89400FFF7C6FB054606E0C9
:100C8000FFF7C2FB401B022801D9032066E6254876
:100C90009430006800F002000028F1D019E02148EB
:100CA0009430006820F001001E49C1F89400FFF75D
:100CB000ABFB054606E0FFF7A7FB401B022801D966
:100CC00003204BE617489430006800F0020000282B
:100CD000F1D1207800F0040004286ED100261148DC
:100CE000806D00F0805070B900BF0E48806D40F0FC
:100CF00080500C4988650846806D00F08050009057
:100D000000BF00BF01260A48006800F48070F0B9F7
:100D10000748006840F4807005490860FFF774FBDD
:100D200005460EE000100240A41800080000002054
:100D300000700040FFF768FB401B022801D9032028
:100D40000CE68148006800F480700028F2D000BFF3
:100D5000A068012808D17D48006840F001007B4967
:100D60009039C1F8900021E0A06805280FD177489C
:100D7000006840F0040075499039C1F890000846B9
:100D8000D0F8900040F00100C1F890000EE06F48EC
:100D9000006820F001006D499039C1F890000846C4
:100DA000D0F8900020F00400C1F8900000BFA068C7
:100DB000A0B1FFF729FB054609E02DE0FFF724FB72
:100DC000401B41F28831884201D90320C6E55F48C3
:100DD000006800F002000028F0D012E0FFF714FBDA
:100DE000054608E0FFF710FB401B41F288318842BE
:100DF00001D90320B2E55548006800F00200002840
:100E0000F0D1012E07D151489038806D20F08050EC
:100E10004E499039886500BFA06AE8B34B489038C6
:100E2000806800F00C000C2879D0A06A022853D109
:100E300046489038006820F0807044499039086036
:100E4000FFF7E2FA054606E0FFF7DEFA401B02284C
:100E500001D9032082E53D489038006800F0007019
:100E60000028F1D1206B401E0101606B41EA002196
:100E7000A06B000941EA4040E16A0843A18F0122CA
:100E8000C2EB510140EA41514020005DC2EB5000ED
:100E900041EA40602D4900E053E09039C8600846BF
:100EA000006840F0807008600846C06840F08070BC
:100EB000C860FFF7A9FA054606E0FFF7A5FA401B50
:100EC000022801D9032049E520489038006800F045
:100ED00000700028F1D034E01C489038006820F001
:100EE00080701A49903908600846006800F0006078
:100EF00048B90846006800F0005020B90846C068AC
:100F000020F00300C86011489038C06810490840BC
:100F10000E499039C860FFF777FA054607E00EE002
:100F2000FFF772FA401B022801D9032016E5074893
:100F30009038006800F000700028F1D101E0012035
:100F40000CE500200AE5000000700040901002400F
:100F5000FFFFEEFE042808D14FF0E021096941F0BF
:100F600004014FF0E022116107E04FF0E021096930
:100F700021F004014FF0E02211617047704770B515
:100F800004462546681EB0F1807F01D301200FE0A2
:100F9000681E4FF0E02148610F214FF0FF3000F054
:100FA000C3FA00204FF0E02188610720086100208B
:100FB00070BD10B5FFF7E2FF10BD7047704700002D
:100FC00030B502460B4600BF92F83C00012801D123
:100FD000022030BD012082F83C0000BF106841684B
:100FE000106884680F4D1068A84203D00E4D106839
:100FF000A84203D121F470015868014321F0700127
:101000001868014324F08004986804431068416024
:101010001068846000BF002082F83C0000BF00BF61
:10102000D7E70000002C01400034014010B5044611
:101030000CB9012010BD94F83D0028B9002084F8B7
:101040003C00204600F00CF8022084F83D00211DF1
:10105000206800F05FFB012084F83D000020E9E7F4
:10106000704701460868C06840F001000A68D06017
:101070000868006840F001000A68106000207047AE
:101080002DE9F04104460D46002600BF94F83C00CF
:10109000012802D10220BDE8F081012084F83C0043
:1010A00000BF022084F83D00206886684148064061
:1010B00026F47F4620688660286850283CD00CDCE7
:1010C000202861D004DC002854D0102866D156E0D6
:1010D00030285ED0402861D142E0602836D07028A8
:1010E0000ED0B0F5805F03D0B0F5005F56D116E0AA
:1010F000206880682F4970310840216888604EE080
:10110000D5E902136A68206800F068FB20688668E9
:101110002848064046F07706206886603FE0D5E91B
:1011200002136A68206800F059FB2068806840F468
:1011300080402168886032E0EA686968206800F0D1
:1011400063FB5021206800F055FB28E0EA686968DD
:10115000206800F06EFB6021206800F04BFB1EE071
:10116000EA686968206800F04FFB4021206800F0C1
:1011700041FB14E00021206800F03CFB0FE010214F
:10118000206800F037FB0AE02021206800F032FBE5
:1011900005E03021206800F02DFB00E000BF00BF1B
:1011A000012084F83D0000BF002084F83C0000BF0F
:1011B00000BF70E788FFFEFF704710B50446206847
:1011C0000069C0F34000D8B12068C068C0F3400097
:1011D000B0B16FF00200216808610120207720681B
:1011E000806900F0030018B12046FFF7E5FF05E035
:1011F000204600F0ADF8204600F0ABF80020207744
:1012000020680069C0F38000D8B12068C068C0F3CE
:101210008000B0B16FF004002168086102202077DF
:101220002068806900F4407018B12046FFF7C4FFC1
:1012300005E0204600F08CF8204600F08AF80020F7
:10124000207720680069C0F3C000D8B12068C0686A
:10125000C0F3C000B0B16FF008002168086104203D
:1012600020772068C06900F0030018B12046FFF71E
:10127000A3FF05E0204600F06BF8204600F069F877
:101280000020207720680069C0F30010D8B12068E2
:10129000C068C0F30010B0B16FF0100021680861A1
:1012A000082020772068C06900F4407018B12046FB
:1012B000FFF782FF05E0204600F04AF8204600F0E4
:1012C00048F8002020772068006900F0010058B13C
:1012D0002068C06800F0010030B16FF001002168A3
:1012E0000861204600F036F820680069C0F3C0109D
:1012F00058B12068C068C0F3C01030B16FF08000F2
:10130000216808612046FFF758FE20680069C0F395
:10131000801058B12068C068C0F3801030B16FF001
:10132000400021680861204600F015F82068006937
:10133000C0F3401058B12068C068C0F3401030B10D
:101340006FF02000216808612046FFF737FE10BDCE
:10135000704770477047704700BFFEE700B587B021
:1013600000BF4848C06C40F001004649C8640846C8
:10137000C06C00F00100019000BF00BF00BF084634
:10138000C06C40F00200C8640846C06C00F0020067
:10139000019000BF00BF00BF0846C06C40F00400D1
:1013A000C8640846C06C00F00400019000BF00BF94
:1013B00000BF0846C06C40F02000C8640846C06CFE
:1013C00000F02000019000BF00BF012220214FF05B
:1013D0009040FFF713F8012240212B48FFF70EF849
:1013E000012280212948FFF709F80122102128480D
:1013F000FFF704F8202002900120039000200490C1
:101400000320059002A94FF09040FEF7EFFE402028
:10141000029001200390002004900320059002A96F
:101420001948FEF7E3FE802002900120039000207F
:1014300004900320059002A91448FEF7D7FE10205F
:10144000029001200390002004900320059002A93F
:101450000F48FEF7CBFE012220214FF09040FEF70F
:10146000CDFF012240210848FEF7C8FF012280215C
:101470000648FEF7C3FF012210210548FEF7BEFF14
:1014800007B000BD001002400004004800080048FA
:101490000014004800B587B04FF08040164908603E
:1014A0001648486000211448816040F2E731C1606D
:1014B000002101618161FFF7B9FD18B1522110A02F
:1014C00000F0CFF94FF48050039003A90A48FFF7CA
:1014D000D7FD18B158210AA000F0C3F900200090F0
:1014E000029069460448FFF76BFD18B15F2104A024
:1014F00000F0B7F907B000BD0800002098340100E3
:101500002E2E2F5372632F6D61696E2E63000000C3
:1015100000BFFEE77047000002480068C0F30220E9
:10152000704700000CED00E010B5002807DA0A074C
:10153000140E054A00F00F031B1FD45403E00A07E2
:10154000130E024A135410BD18ED00E000E400E051
:1015500070470000F8B50446002600252348806D3A
:1015600000F0805018B1FFF761F8064616E000BFA2
:101570001E48806D40F080501C4988650846806D8B
:1015800000F08050009000BF00BFFFF74FF8064604
:101590001648806D20F0805014498865B6F5007FAC
:1015A00007D1802C10D9A02C01D902250CE00125EF
:1015B0000AE0802C01D9032506E0802C01D1022508
:1015C00002E0702C00D101250948006820F00700D6
:1015D0002843074908600846006800F00700A84251
:1015E00001D00120F8BD0020FCE7000000100240FF
:1015F00000200240704710B5FEF70CFFFFF7D9FC42
:1016000010BD000010B596B002200590C0010890F2
:101610001020099002200F900221109101211191B8
:101620000A2112910721139102211491159105A805
:10163000FFF77EF918B1A92117A000F012F90F20C9
:101640000090032001900020029003900490032159
:101650006846FEF7F3FF18B1B7210FA000F001F9BB
:101660004FF40070FEF79CFF18B1BE210AA000F0F5
:10167000F8F8FFF7D1F84FF47A71B0FBF1F4204697
:10168000FFF77DFC0420FFF765FC00221146501E89
:10169000FEF730FF16B010BD2E2E2F5372632F6D44
:1016A00061696E2E630000001048006840F470000D
:1016B0000E4908600E48006840F001000C490860BF
:1016C00000208860084600680A4908400849086008
:1016D0008814C8600846006820F480200860002054
:1016E00088610548014980390860704788ED00E04D
:1016F00000100240FFFFF6EA0080000810B520212C
:101700004FF09040FEF776FE0148FFF756FD10BD02
:101710000800002000220268284B98420ED0B0F149
:10172000804F0BD0264B984208D0264B984205D0CC
:10173000254B984202D0254B984203D122F07002EB
:101740004B681A431D4B984217D0B0F1804F14D00C
:101750001B4B984211D01B4B98420ED01A4B98420B
:101760000BD01A4B984208D0194B984205D0194B10
:10177000984202D0184B984203D122F44072CB68B1
:101780001A4322F080024B691A4302608B68C362DD
:101790000B688362094B98420BD00C4B984208D0DF
:1017A0000B4B984205D00B4B984202D00A4B984203
:1017B00001D10B690363012343617047002C014091
:1017C0000004004000080040000C004000340140CC
:1017D00000400140004401400048014030B50C4643
:1017E0000021816821F47F4142EA032525432943F2
:1017F000816030BD0A460021816821F0700142F00D
:10180000070319438160704730B50B461446002129
:101810000022026A056A25F001050562816921F04E
:10182000F00141EA041122F00A021A4381610262C6
:1018300030BD30B50B46144600210022056A25F064
:10184000100505628169026A21F4704141EA0431A0
:1018500022F0A00242EA03128161026230BD00BFA1
:10186000FEE700BFFEE702E008C8121F08C1002A19
:10187000FAD170477047002001E001C1121F002A11
:10188000FBD17047FEF7CEFDFFF7BCFEFFF766FD0C
:10189000FFF700FE0248FFF7E4FB00BFFEE7000091
:1018A0000800002000000000000000000102030406
:1018B000060708090000000001020304A0860100D9
:1018C000400D0300801A060000350C0040420F0056
:1018D00080841E0000093D0000127A000024F400FC
:1018E00000366E010048E801006CDC020C190008AB
:1018F0000000002008000000661800081419000805
:1019000008000020400400007618000800093D008F
:0419100000000000D3
:040000050800018965
:00000001FF
